:20000000020100FFFFFFFFFFFFFFFF020973FFFFFFFFFFFFFFFFFFFFFFFFFFFFFFFFFFFF79
:20002000FFFFFFFFFFFFFFFFFFFFFFFFFFFFFFFFFFFFFFFFFFFFFFFFFFFFFFFFFFFFFFFFE0
:20004000FFFFFFFFFFFFFFFFFFFFFFFFFFFFFFFFFFFFFFFFFFFFFFFFFFFFFFFFFFFFFFFFC0
:20006000FFFFFFFFFFFFFFFFFFFFFFFFFFFFFFFFFFFFFFFFFFFFFFFFFFFFFFFFFFFFFFFFA0
:20008000FFFFFFFFFFFFFFFFFFFFFFFFFFFFFFFFFFFFFFFFFFFFFFFFFFFFFFFFFFFFFFFF80
:2000A000FFFFFFFFFFFFFFFFFFFFFFFFFFFFFFFFFFFFFFFFFFFFFFFFFFFFFFFFFFFFFFFF60
:2000C000FFFFFFFFFFFFFFFFFFFFFFFFFFFFFFFFFFFFFFFFFFFFFFFFFFFFFFFFFFFFFFFF40
:2000E000FFFFFFFFFFFFFFFFFFFFFFFFFFFFFFFFFFFFFFFFFFFFFFFFFFFFFFFFFFFFFFFF20
:200100007581E0D201D2021201B47532FF7533FF753400753900753A00753B00755F00754F
:200120003C00753D00753E00755E00753F00754A00754B007550001208C51208E612016CF5
:200140000559E559120AA2B4FF0AC2AF12018BD2AF7559001208941201C51201DA120B900A
:2001600012024312023112030E02014075400075410075420175430A758901758800758C9B
:20018000F8758A30D28CD2A9D2AF22754800754900853960853C61853B62855F63853E6471
:2001A000855E65853F6685426779607A08120E26120AA22275480075490079687A08120E20
:2001C0004A120AA222E539B40504C2B5800BB40704C2B48004D2B5D2B422E539B403517496
:2001E0008012093A742012094A748812093A742012094A749012093A12094A742074981277
:20020000093A742012094AE53DB4010474808017B4020474908010B4030474888009B404F6
:200220000474988002800812093A741212094A2222E539B4070CE54AB4140375390840FB50
:20024000800022E539B40502800302030DE53FB40110E54AB4190675390602030D50F80293
:20026000030DB40210E54AB4320675390602030D50F802030DB40310E54AB44B06753906BE
:2002800002030D50F802030DB40410E54AB464CD75390602030D50F802030DB40510E54AFE
:2002A000B4820675390602030D50F802030DB40610E54AB4A0A775390602030D50F80203DB
:2002C0000DB40710E54AB4BE9475390602030D50F802030DB40810E54AB4DC81753906022F
:2002E000030D50F802030DB40910E54AB4FA0675390602030D50F802030DB40010E54AB41D
:200300000A0675390602030D50F802030D22754510749012093AE539B4015DB53A0302083C
:200320009385393A740112093A900338754540748012093A120969222020B0FCCABDCFB4BE
:20034000D2C2BBFA202020202020C1AACFB5B5E7BBB02020202020202020D6BBCFB4BCA628
:200360002020B2BBCFB4D2C220203138383638313531303536202020E539B4025DB53A03B5
:2003800002089385393A740112093A90039A754540748012093A1209692220203120726580
:2003A000737461727420202020202020697320757020746F20796F75202020203220636F2A
:2003C0006E74696E6E756520202020202020202020202020202020202020E539B4031EB514
:2003E0003A0302040085393A740112093A90045B754540748012093A120969800302049B1E
:20040000783C748612093AE675F00A84443012094AE5F0443012094A783B749612093AE681
:2004200075F00A84443012094AE5F0443012094A783E748E12093AE675F00A8444301209CD
:200440004AE5F0443012094A7852749C12093A754503E60812094AD545F8222020CFB4D29C
:20046000C2B4CECAFDA3BA2020B4CE2020CDD1CBAECAB1BCE4A3BA2020B7D62020CFB4D221
:20048000C2CAB1BCE4A3BA2020B7D62020CBAECEBBA3BA202020202F323535E539B4041D78
:2004A000B53A02801B85393A740112093A9004EB754540748012093A120969800302052BF3
:2004C000783F748612093AE675F00A84443012094AE5F0443012094A7852749C12093A7512
:2004E0004503E60812094AD545F8222020BCD3CBAEB5C8BCB6A3BA202020202020BFC9D180
:20050000A1D4F1A3BA312D39202020202020202020202020202020202020202020CBAECE9A
:20052000BBA3BA202020202F323535E539B4051DB53A02801B85393A740112093A900593EE
:20054000754540748012093A12096980030205D3783F748612093AE675F00A844430120909
:200560004AE5F0443012094A7852749C12093A754503E60812094AD545F8783B748E120962
:200580003AE675F00A84443012094AE5F0443012094A222020BCD3CBAEB5C8BCB6A3BA20EB
:2005A0002020206E657874CFB4D2C2A3BA20202020B7D62020D5FDD4DABCD3CBAED6D0A18C
:2005C000AD20202020CBAECEBBA3BA202020202F323535E539B40628B53A028026E53CB4D8
:2005E000000675390902064385393A740112093A900644754540748012093A12096980030D
:20060000020684783C749512093AE675F00A84443012094AE5F0443012094A784C7545025C
:20062000748412093AE608443012094AD545F6784E754502748612093AE644300812094AFE
:20064000D545F622CFB4D2C2A3BA20202020B7D62020C3EB6E6578742020B7C5CBAE2020C5
:2006600020202020CAA3D3E0B4CECAFDA3BA202020202020202020202020202020202020F4
:2006800020202020E539B4071DB53A02801B85393A740112093A9006EC754540748012090B
:2006A0003A120969800302072C783E748E12093AE675F00A84443012094AE5F044301209A1
:2006C0004A783C749612093AE675F00A84443012094AE5F0443012094A7852749C12093A2E
:2006E000754503E60812094AD545F8222020B5B1C7B0B7C5CBAED6D0202020206E657874BF
:20070000CDD1CBAEA3BA20202020B7D6CAA3D3E0B4CECAFDA3BA2020202020202020CBAE19
:20072000CEBBA3BA202020202F323535E539B4081DB53A02801B85393A740112093A9007AC
:2007400092754540748012093A12096980030207D2783C749612093AE675F00A8444301270
:20076000094AE5F0443012094A785A754502748412093AE608443012094AD545F6785C757D
:200780004502748612093AE644300812094AD545F622CDD1CBAEA3BA20202020B7D6202009
:2007A000C3EB6E657874BDE1CAF86F72D6D8C0B42020CAA3D3E0B4CECAFDA3BA20202020E3
:2007C000202020202020202020202020202020202020E539B4095AB53A0085393A74011236
:2007E000093A9007F1754540748012093A120969222020BBB6D3ADCAB9D3C320202020205B
:20080000202020D3C0D4B6CEAAC4E3C3C7202020202020B0FCB0FCCAC0BDE7B5C4B4F3C389
:20082000C520202020B3A8BFAAC5B6202020202020E539B40F5DB53A0302089385393A743B
:200840000112093A900853754540748012093A120969222020CFB4D2C2BBFAD2B2BBE1C082
:20086000DBC5B6B0FCB0FCBDDFB3CFCEAAC4FAB7FECEF1CCFDBBE1B6F9B8E8D0DDCFA2CF61
:20088000C2B0C92020202020202020202020202020202022C2A7000000D2A77580FF120A09
:2008A000A2C2A6000000E580D2A675F064F54A844430F552E5F075F00A844430F55343F053
:2008C0003085F05422C2A4D2A400D2A3743012093A743012093A740C12093A740112093A1B
:2008E000740612093A22740112093A9008FA754540748012093A120969222020BBB6D3AD91
:20090000C0B4B5BD2020202020202020B0FCB0FCCFB4D2C2CAC0BDE7202020202020202054
:20092000202020202020202020202020202020202020202020202020202012095AC2A0C2DE
:20094000A1F580D2A20000C2A22212095AD2A0C2A1F580D2A20000C2A2227580FFC2A0D2A6
:20096000A1D2A22087FDC2A222E49312094AA3D545F722C0E0C0D0C082C083120C90120908
:20098000C9120A72120A16120A8A120AB1D083D082D0D0D0E032758CF8758A300540E540A2
:2009A000C394324023F5400541E541C3940A4018F5410542E542C3943C400DF5420543E509
:2009C00043C3943C4002F54322E539B406028003020A15758CF8758A300540E540C394320C
:2009E0004033F5400541E541C3940A4028F541C3E542B4000575423B800514F5428016C326
:200A0000E53BB4000B855F3B754200753907800514F53B800022E539B408028003020A7125
:200A2000758CF8758A300540E540C3943240E6F5400541E541C3940A40DBF541C3E542B484
:200A4000000575423B800514F5428025C3E53EB4001A153CE53CB40008753909754200805A
:200A600010753905855E3E754200800514F53E800022784CE53B75F00A84F608A6F008E515
:200A80004275F00A84F608A6F022785AE53E75F00A84F608A6F008E54275F00A84F608A629
:200AA000F0227530027531FA0000D531FBD530F522054BE54BB4FA05B202754B0030017A6E
:200AC000E539B4067E0547E547B40A004014754700300233E54605467009D2B0D2B1C2B2AD
:200AE000C2B322B40109D2B0C2B1C2B2D2B322B40209C2B0C2B1D2B2D2B322C2B0D2B1D2FB
:200B0000B2C2B375460022E54605467009C2B0D2B1D2B2C2B322B40109C2B0C2B1D2B2D2D9
:200B2000B322B40209D2B0C2B1C2B2D2B322D2B0D2B1C2B2C2B375460022C2B0C2B1C2B2ED
:200B4000C2B322B40841D2020547E547B404004011754700E54605467009D2B0D2B1C2B288
:200B6000C2B322B40109D2B0C2B1C2B2D2B322B40209C2B0C2B1D2B2D2B322C2B0D2B1D27A
:200B8000B2C2B375460022C2B0C2B1C2B2C2B322E532B4FF0122C3B4091DE539B4034BE5D2
:200BA0003DB40116E53CC3B4090875F00AA42532F53C40F6020C1E020C21B40215E53BC3AA
:200BC000B4090A75F00AA42532F53BF55F40F4020C1EB40315E53EC3B4090A75F00AA4254F
:200BE00032F53EF55E40F4020C1EB4040585323F802CB40229E532B40105753903801FB4CA
:200C0000021A85683985693C856A3B856B5F856C3E856D5E856E3F856F4280028000020CF8
:200C20008C40028003020B9AB40A07E53904F539805AB40B07E53914F5398050B40C07E52B
:200C40003D14F53D8046B40D07E53D04F53D803CB40E26E539B4031CE53DB40105753C0009
:200C60008010B40205753B008008B40305753E00800080187539018013B40F10E539B40F74
:200C800005855039800685395075390F7532FF227590F000E59054F0F5F075900F00E5900C
:200CA000540F45F0900CBF93B5330EE534B4030685333205342240FB22F53375340022FF4E
:200CC000FFFFFFFFFFFFFFFFFFFFFFFFFFFFFFFFFFFFFFFFFFFFFFFFFFFFFFFFFFFFFFFF34
:200CE000FFFFFFFFFFFFFFFFFFFFFFFFFFFFFFFFFFFFFFFFFFFFFFFFFFFFFFFFFFFFFFFF14
:200D0000FFFFFFFFFFFFFFFFFFFFFFFFFFFFFFFFFFFFFFFFFFFFFFFFFFFFFFFFFFFFFFFFF3
:200D2000FFFFFFFFFFFFFFFFFFFFFFFFFFFFFFFFFFFFFFFFFFFF01FFFFFF05FF090CFFFFB4
:200D4000FFFFFFFFFFFFFFFFFFFFFFFFFFFFFFFFFFFFFFFFFFFFFFFFFFFFFFFFFFFFFFFFB3
:200D6000FFFFFFFFFFFFFFFFFFFFFFFFFFFFFFFFFFFFFFFFFFFF02FFFFFF06FF000DFFFF7A
:200D8000FFFFFFFFFFFFFFFFFFFFFFFFFFFFFFFFFFFFFFFFFFFF03FFFFFF07FF0A0EFFFF4D
:200DA000FFFFFFFFFFFF04FFFFFF08FF0B0FFFFFFFFFFFFFFFFFFFFFFFFFFFFFFFFFFFD256
:200DC000B700D2B60000000000C2B70000000000C2B622C2B700D2B60000000000D2B70037
:200DE00000000022D2B7D2B60020B7FD0000C2B622C2B7000000D2B600000000C2B622D2E5
:200E0000B77808D2B6000000A2B7C2B6330000D8F222780833000092B700D2B6000000009F
:200E200000C2B6D8EF22120DBFE5482344A0120E12120DE4E549120E12120DE4E709120E97
:200E400012120DE4DAF6120DD322120DBFE5482344A0120E12120DE4E549120E12120DE4EF
:1E0E6000120DBFE5482344A1120E12120DE4120DFFF709DA04120DD322120DF180F09C
:00000001FF
